{
  "_format": "hh-sol-artifact-1",
  "contractName": "BlockTimestamp",
  "sourceName": "contracts/BlockTimestamp.sol",
  "abi": [
    {
      "inputs": [],
      "stateMutability": "nonpayable",
      "type": "constructor"
    },
    {
      "inputs": [],
      "name": "getDiffTime",
      "outputs": [
        {
          "internalType": "uint256",
          "name": "",
          "type": "uint256"
        }
      ],
      "stateMutability": "view",
      "type": "function"
    },
    {
      "inputs": [],
      "name": "hello",
      "outputs": [
        {
          "internalType": "uint256",
          "name": "",
          "type": "uint256"
        }
      ],
      "stateMutability": "view",
      "type": "function"
    },
    {
      "inputs": [],
      "name": "lastBlockNumber",
      "outputs": [
        {
          "internalType": "uint256",
          "name": "",
          "type": "uint256"
        }
      ],
      "stateMutability": "view",
      "type": "function"
    },
    {
      "inputs": [],
      "name": "lastTimestamp",
      "outputs": [
        {
          "internalType": "uint256",
          "name": "",
          "type": "uint256"
        }
      ],
      "stateMutability": "view",
      "type": "function"
    },
    {
      "inputs": [],
      "name": "setHello",
      "outputs": [],
      "stateMutability": "nonpayable",
      "type": "function"
    }
  ],
  "bytecode": "0x608060405234801561001057600080fd5b50600160008190555061026d806100286000396000f3fe608060405234801561001057600080fd5b50600436106100575760003560e01c806319d8ac611461005c57806319ff1d211461007a5780632552317c1461009857806373fde99a146100b6578063cd594a1c146100c0575b600080fd5b6100646100de565b6040518082815260200191505060405180910390f35b6100826100e4565b6040518082815260200191505060405180910390f35b6100a06100ea565b6040518082815260200191505060405180910390f35b6100be6100f0565b005b6100c861010c565b6040518082815260200191505060405180910390f35b60015481565b60005481565b60025481565b6001600054016000819055504260018190555043600281905550565b6000806101246001544261012d90919063ffffffff16565b90508091505090565b600061016f83836040518060400160405280601e81526020017f536166654d6174683a207375627472616374696f6e206f766572666c6f770000815250610177565b905092915050565b6000838311158290610224576040517f08c379a00000000000000000000000000000000000000000000000000000000081526004018080602001828103825283818151815260200191508051906020019080838360005b838110156101e95780820151818401526020810190506101ce565b50505050905090810190601f1680156102165780820380516001836020036101000a031916815260200191505b509250505060405180910390fd5b506000838503905080915050939250505056fea2646970667358221220a9ff081e0af2c949e0b51eb27b088f2d01a25ff5c29d8cb87024451f82a3a4f464736f6c63430007050033",
  "linkReferences": {},
  "deployedLinkReferences": {}
}