{
    "contractName": "DeployArgs",
    "abi": [
        {
            "inputs": [
                {
                    "internalType": "uint256",
                    "name": "_value",
                    "type": "uint256"
                },
                {
                    "internalType": "address[]",
                    "name": "_addressList",
                    "type": "address[]"
                }
            ],
            "stateMutability": "nonpayable",
            "type": "constructor"
        },
        {
            "inputs": [],
            "name": "getAddressList",
            "outputs": [
                {
                    "internalType": "address[]",
                    "name": "",
                    "type": "address[]"
                }
            ],
            "stateMutability": "view",
            "type": "function"
        },
        {
            "inputs": [],
            "name": "getValue",
            "outputs": [
                {
                    "internalType": "uint256",
                    "name": "",
                    "type": "uint256"
                }
            ],
            "stateMutability": "view",
            "type": "function"
        }
    ],
    "bytecode": "608060405234801561001057600080fd5b5060405161033a38038061033a83398101604081905261002f916100e5565b6000829055805161004790600190602084019061004f565b5050506101c9565b8280548282559060005260206000209081019282156100a4579160200282015b828111156100a457825182546001600160a01b0319166001600160a01b0390911617825560209092019160019091019061006f565b506100b09291506100b4565b5090565b5b808211156100b057600081556001016100b5565b80516001600160a01b03811681146100e057600080fd5b919050565b600080604083850312156100f7578182fd5b8251602080850151919350906001600160401b0380821115610117578384fd5b818601915086601f83011261012a578384fd5b81518181111561013c5761013c6101b3565b8381026040518582820101818110858211171561015b5761015b6101b3565b604052828152858101935084860182860187018b1015610179578788fd5b8795505b838610156101a25761018e816100c9565b85526001959095019493860193860161017d565b508096505050505050509250929050565b634e487b7160e01b600052604160045260246000fd5b610162806101d86000396000f3fe608060405234801561001057600080fd5b50600436106100365760003560e01c8063209652551461003b5780638111913014610059575b600080fd5b61004361006e565b6040516100509190610123565b60405180910390f35b610061610074565b60405161005091906100d6565b60005490565b606060018054806020026020016040519081016040528092919081815260200182805480156100cc57602002820191906000526020600020905b81546001600160a01b031681526001909101906020018083116100ae575b5050505050905090565b6020808252825182820181905260009190848201906040850190845b818110156101175783516001600160a01b0316835292840192918401916001016100f2565b50909695505050505050565b9081526020019056fea26469706673582212206bff02e87b3ed43fe4f300d71a8088fdd68f6151fd69cc8892112bf03020f3fd64736f6c63430008000033",
    "sourcePath": "/Users/username/Desktop/simple-storage-v2/contracts/deployArgs.sol",
    "compiler": {
        "name": "solc",
        "version": "0.8.0+commit.c7dfd78e"
    },
    "functionHashes": {
        "getAddressList()": "81119130",
        "getValue()": "20965255"
    },
    "gasEstimates": {
        "creation": {
            "codeDepositCost": "70800",
            "executionCost": "infinite",
            "totalCost": "infinite"
        },
        "external": {
            "getAddressList()": "infinite",
            "getValue()": "1006"
        }
    }
}