{
  "contractName": "ErrorReceipt",
  "abi": [
    {
      "inputs": [
        {
          "internalType": "uint256",
          "name": "value",
          "type": "uint256"
        }
      ],
      "name": "getRevertMsg",
      "outputs": [
        {
          "internalType": "uint256",
          "name": "",
          "type": "uint256"
        }
      ],
      "stateMutability": "view",
      "type": "function"
    }
  ],
  "bytecode": "608060405234801561001057600080fd5b50610171806100206000396000f3fe608060405234801561001057600080fd5b506004361061002b5760003560e01c8063df57407814610030575b600080fd5b61004361003e3660046100ac565b610059565b6040516100509190610132565b60405180910390f35b6000816101bc14156100865760405162461bcd60e51b815260040161007d906100fb565b60405180910390fd5b8161022b14156100a85760405162461bcd60e51b815260040161007d906100c4565b5090565b6000602082840312156100bd578081fd5b5035919050565b60208082526019908201527f796f75207472696767657220637279696e672076616c75652100000000000000604082015260600190565b60208082526018908201527f796f7520747269676765722064656174682076616c7565210000000000000000604082015260600190565b9081526020019056fea26469706673582212201482befd2e7d924592a91243406a579ea726c38f609a9f85ae6662794e18e2ae64736f6c63430008000033",
  "sourcePath": "/Users/username/Desktop/simple-storage-v2/contracts/ErrorReceipt.sol",
  "compiler": {
    "name": "solc",
    "version": "0.8.0+commit.c7dfd78e"
  },
  "functionHashes": {
    "getRevertMsg(uint256)": "df574078"
  },
  "gasEstimates": {
    "creation": {
      "codeDepositCost": "73800",
      "executionCost": "123",
      "totalCost": "73923"
    },
    "external": {
      "getRevertMsg(uint256)": "382"
    }
  }
}