{
  "contractName": "s2",
  "abi": [
    {
      "constant": true,
      "inputs": [],
      "name": "get",
      "outputs": [
        {
          "name": "",
          "type": "bytes20"
        }
      ],
      "payable": false,
      "stateMutability": "view",
      "type": "function"
    },
    {
      "constant": false,
      "inputs": [
        {
          "name": "newValue",
          "type": "bytes20"
        }
      ],
      "name": "set",
      "outputs": [],
      "payable": false,
      "stateMutability": "nonpayable",
      "type": "function"
    }
  ],
  "bytecode": "608060405234801561001057600080fd5b50610137806100206000396000f3fe60806040526004361061004b5763ffffffff7c01000000000000000000000000000000000000000000000000000000006000350416636d4ce63c8114610050578063935bf69b14610087575b600080fd5b34801561005c57600080fd5b506100656100c2565b604080516bffffffffffffffffffffffff199092168252519081900360200190f35b34801561009357600080fd5b506100c0600480360360208110156100aa57600080fd5b50356bffffffffffffffffffffffff19166100d7565b005b6000546c010000000000000000000000000290565b6000805473ffffffffffffffffffffffffffffffffffffffff19166c0100000000000000000000000090920491909117905556fea165627a7a7230582028bd13cc697ea9ca7b7bd0671288b360a518896fad5df4833587e133aeb4eb500029",
  "sourcePath": "/Users/retric/Desktop/polyjuice-provider/packages/web3/tests/multi-abi/contracts/s2.sol",
  "compiler": {
    "name": "solc",
    "version": "0.5.0+commit.1d4f565a"
  },
  "functionHashes": {
    "get()": "6d4ce63c",
    "set(bytes20)": "935bf69b"
  },
  "gasEstimates": {
    "creation": {
      "codeDepositCost": "62200",
      "executionCost": "111",
      "totalCost": "62311"
    },
    "external": {
      "get()": "404",
      "set(bytes20)": "20447"
    }
  }
}