{
  "contractName": "s3",
  "abi": [
    {
      "constant": false,
      "inputs": [
        {
          "name": "newValue",
          "type": "address"
        }
      ],
      "name": "set",
      "outputs": [],
      "payable": false,
      "stateMutability": "nonpayable",
      "type": "function"
    },
    {
      "constant": true,
      "inputs": [],
      "name": "get",
      "outputs": [
        {
          "name": "",
          "type": "address"
        }
      ],
      "payable": false,
      "stateMutability": "view",
      "type": "function"
    }
  ],
  "bytecode": "608060405234801561001057600080fd5b50610154806100206000396000f3fe60806040526004361061004b5763ffffffff7c01000000000000000000000000000000000000000000000000000000006000350416632801617e81146100505780636d4ce63c14610092575b600080fd5b34801561005c57600080fd5b506100906004803603602081101561007357600080fd5b503573ffffffffffffffffffffffffffffffffffffffff166100d0565b005b34801561009e57600080fd5b506100a761010c565b6040805173ffffffffffffffffffffffffffffffffffffffff9092168252519081900360200190f35b6000805473ffffffffffffffffffffffffffffffffffffffff191673ffffffffffffffffffffffffffffffffffffffff92909216919091179055565b60005473ffffffffffffffffffffffffffffffffffffffff169056fea165627a7a723058207c02e4b5c622b0c10573ff35d46d6343833ff3cc61d79960f08307483f86ee8a0029",
  "sourcePath": "/Users/retric/Desktop/polyjuice-provider/packages/web3/tests/multi-abi/contracts/s3.sol",
  "compiler": {
    "name": "solc",
    "version": "0.5.0+commit.1d4f565a"
  },
  "functionHashes": {
    "get()": "6d4ce63c",
    "set(address)": "2801617e"
  },
  "gasEstimates": {
    "creation": {
      "codeDepositCost": "68000",
      "executionCost": "117",
      "totalCost": "68117"
    },
    "external": {
      "get()": "421",
      "set(address)": "20423"
    }
  }
}