{
  "contractName": "s4",
  "abi": [
    {
      "constant": false,
      "inputs": [
        {
          "name": "newValue",
          "type": "address"
        },
        {
          "name": "value",
          "type": "uint8"
        }
      ],
      "name": "set",
      "outputs": [],
      "payable": false,
      "stateMutability": "nonpayable",
      "type": "function"
    },
    {
      "constant": true,
      "inputs": [],
      "name": "get",
      "outputs": [
        {
          "name": "",
          "type": "address"
        }
      ],
      "payable": false,
      "stateMutability": "view",
      "type": "function"
    }
  ],
  "bytecode": "608060405234801561001057600080fd5b506101cf806100206000396000f3fe60806040526004361061004b5763ffffffff7c010000000000000000000000000000000000000000000000000000000060003504166343f9acff81146100505780636d4ce63c1461009b575b600080fd5b34801561005c57600080fd5b506100996004803603604081101561007357600080fd5b50803573ffffffffffffffffffffffffffffffffffffffff16906020013560ff166100d9565b005b3480156100a757600080fd5b506100b0610187565b6040805173ffffffffffffffffffffffffffffffffffffffff9092168252519081900360200190f35b60ff8116151561014a57604080517f08c379a000000000000000000000000000000000000000000000000000000000815260206004820152601060248201527f76616c75652063616e2774206265203000000000000000000000000000000000604482015290519081900360640190fd5b506000805473ffffffffffffffffffffffffffffffffffffffff191673ffffffffffffffffffffffffffffffffffffffff92909216919091179055565b60005473ffffffffffffffffffffffffffffffffffffffff169056fea165627a7a7230582036a07f21bb6bd81584ebd4a3d5a837199a588b842b496764780f6960514151080029",
  "sourcePath": "/Users/retric/Desktop/polyjuice-provider/packages/web3/tests/multi-abi/contracts/s4.sol",
  "compiler": {
    "name": "solc",
    "version": "0.5.0+commit.1d4f565a"
  },
  "functionHashes": {
    "get()": "6d4ce63c",
    "set(address,uint8)": "43f9acff"
  },
  "gasEstimates": {
    "creation": {
      "codeDepositCost": "92600",
      "executionCost": "141",
      "totalCost": "92741"
    },
    "external": {
      "get()": "421",
      "set(address,uint8)": "20475"
    }
  }
}